:020000040800F2
:100000003805002001010008CD1D0008C51D0008AD
:10001000C91D00086D010008AD21000800000000A6
:10002000000000000000000000000000D9200008CF
:100030007101000800000000D11D0008DD2000084B
:100040001B0100081B010008312100081B010008EA
:100050001B0100081B0100081B0100081B01000810
:100060001B0100081B0100081B0100081B01000800
:100070001B0100081B0100081B0100081B010008F0
:100080001B0100081B0100081B0100081B010008E0
:100090001B0100081B0100081B0100081B010008D0
:1000A0001B0100081B0100081B0100081B010008C0
:1000B0001B0100083D210008712100081B010008F8
:1000C0001B0100081B0100081B0100081B010008A0
:1000D0001B0100081B0100081B0100081B01000890
:1000E0001B0100081B0100081B010008DFF80CD0F1
:1000F00000F02AF8004800473D230008380500209A
:100100000648804706480047FEE7FEE7FEE7FEE7B1
:10011000FEE7FEE7FEE7FEE7FEE7FEE7E120000878
:10012000ED000008D2B201E000F8012B491EFBD21D
:1001300070470022F6E710B513460A4604461946F2
:10014000FFF7F0FF204610BD064C074D06E0E068C3
:1001500040F0010394E8070098471034AC42F6D30E
:10016000FFF7C8FF582B0008782B0008FEE70000B7
:1001700070470000B0B5044600F026F9054640F28D
:100180000000C2F200000078611C18BF044400BFE8
:1001900000F01AF9401BA042FAD3B0BD2DE9F04F90
:1001A00082B041F20042C4F201020E680423904280
:1001B00008BF0323002E009300F0F68040F20C4E9F
:1001C0004FF6FF7CC4F2010E00220124C1F2100C94
:1001D0004FF0000A4FF0000943E000BF012502F094
:1001E0000C040F27A7402BEA070705FA04F43C4349
:1001F00043F82640D1F804B040F20045C4F20105AE
:100200005FEACB332B6854BF23EA080343EA0803B1
:100210002B606B685FEA8B3454BF23EA080343EA20
:1002200008036B605FEACB24AB6854BF23EA080382
:1002300043EA08035FEA8B24AB60DEF800304FF03E
:10024000010454BF23EA080343EA0803CEF8003050
:100250000E680AF1010A36FA0AF302F1040200F00C
:10026000A38004FA0AF816EA080FF1D04B68634538
:1002700012DC122B56D8DFE803F0350B45495555F3
:1002800055555555555555555555554D510000BF6A
:10029000D1F80C9046E000BF4FF6FF77C1F221077E
:1002A000BB420FDC0027C1F21107BB421AD0002766
:1002B000C1F21207BB4215D00027C1F22107BB4291
:1002C00010D02FE00027C1F22207BB420AD000273E
:1002D000C1F23107BB4205D00027C1F23207BB4251
:1002E00020D100BF8B684BB1012B14BFC0F8148024
:1002F000C0F810804FF0080914E000BF4FF0040967
:1003000010E000BFCB6803F108090BE04FF00009D3
:1003100008E000BFCB6803F1040903E0CB6803F1F8
:100320000C0900BF13460546BAF1080F24BF203B55
:1003300004352E680F279F40BE4309FA03F3334369
:100340002B60CB79DB067FF583AF41F21804C4F252
:10035000020423684FEA9A0643F0010323602368EE
:1003600040F6000403F001030193019B40F20043B7
:10037000C4F20103A3F57E7353F826B0C4F201045E
:10038000A0420FD040F60044C4F20104A0423FF462
:1003900025AF41F20004C4F20104009DA04208BF51
:1003A00002251CE700251AE702B0BDE8F08F000027
:1003B0008068084018BF012070470000002A08BF6D
:1003C000090401617047000040F23410C2F20000DD
:1003D0000068704740F2000040F23411C2F20000A1
:1003E000C2F2000100780A681044086070470000FB
:1003F00080B542F20000C4F20200016841F0100131
:100400000160032000F08AF8002000F005F800F0F9
:1004100027F8002080BD000070B540F20006C2F24F
:10042000000640F208013278C2F200014FF47A73FC
:100430000968B3FBF2F20446B1FBF2F1084601F0A1
:1004400019F80F2C4FF0010508D838B94FF0FF30DC
:1004500021460022002500F035F87460284670BD62
:1004600082B041F21800C4F202000168022241F099
:1004700001010160016801F00101019101994168E8
:1004800041F080514160406800F080500090009839
:100490000420C4F20100016862F31A61016002B035
:1004A00070470000002848BF704700F01F0101227C
:1004B00002FA01F14EF200124009CEF2000242F8B7
:1004C0002010704710B54EF60C5CCEF2000CDCF834
:1004D0000030C3F3022E8EF00704042C28BF04243E
:1004E000BEF103034FF0FF3E0EFA04F438BF0023C1
:1004F000A14399400EFA03F39A43114300F00F020F
:10050000043A624409010C3200F16043B0F1FF3F4C
:10051000C8BF03F56442117010BD00004EF60C51C7
:10052000CEF200010A684FF6FF031A4060F30A2278
:1005300042F0806040F0FD70086070472020C4F2F7
:100540000E2001210160704780B5012818D00228D3
:1005500036D0102832D141F20401C4F202010A68F7
:1005600051F8040CC00129D5C2F383402EA3185CB6
:10057000D2033FD440F60012C0F23D02504345E0A2
:1005800041F20400C4F20200C16940F202320A40A2
:10059000B2F5817F04BF4FF4004080BD01F440718B
:1005A000B1F5407F1CD0B1F5007F07D1006A49F654
:1005B0004041800701EAE07080BD00BF002080BD9F
:1005C00000F0AAF941F20401C4F202010968022212
:1005D000C1F3813102EB4101B0FBF1F080BD00BFFE
:1005E00050F8040C4BF2F3418003C0F2010101EA20
:1005F000E07080BD0A6810A3C2F340429A5C47F6DF
:10060000B013C0F2DA03B3FBF2F2504309684902B7
:1006100048BF80BD4AF6AB214000CAF6AA21A0FB24
:100620000101480880BD00BF020304050607080950
:100630000A0B0C0D0E0F1010010200002DE9F04105
:1006400082B00446007841F21C06C007C4F20206DC
:100650004AD0306810F0805808D1306840F080509F
:100660003060306800F080500190019847F2000738
:10067000C4F200073868C00512D4386840F48070AE
:100680003860FFF7A1FE05463868C00508D4FFF7BB
:100690009BFE401B6428F7D9032002B0BDE8F0811F
:1006A000706810F4407012D0616801F440718842A3
:1006B0000DD0706840F24042C4F24222012320F47F
:1006C000407113600023C007136071602AD1706805
:1006D000616820F440700843B8F1000F706003D1E6
:1006E000306820F0805030602068810707D556F8C8
:1006F000181CA26821F44041114346F8181CC0069A
:1007000004D4002002B0BDE8F08100BF56F8180CF8
:10071000E16820F48000084346F8180C002002B07D
:10072000BDE8F081FFF750FE054641F2883700BF73
:1007300070688007CBD4FFF747FE401BB8424FF0EC
:100740000300F5D9EBE700002DE9F04381B0002864
:1007500000F0878042F20008C4F202080446D8F88C
:1007600000000D4600F0070088420CD2D8F80000C7
:1007700020F007002843C8F80000D8F8000000F077
:100780000700A8426DD1206841F204098107C4F234
:10079000020917D5410705D5D9F8001041F4E061E9
:1007A000C9F80010010705D5D9F8001041F46051CF
:1007B000C9F80010D9F80010A26821F0F001114327
:1007C000C9F80010C00743D1D8F8000000F00700B6
:1007D000A8420CD9D8F8000020F007002843C8F838
:1007E0000000D8F8000000F00700A84239D12068C6
:1007F000410707D5D9F80010E26821F4E061114300
:10080000C9F80010000708D5D9F80000216920F4C4
:10081000605040EAC100C9F80000D9F8001047F65E
:10082000B01001F00C02042AC0F2DA0058D0082AF5
:1008300044D142F64833C1F38342C0F600039A5CC8
:10084000C90341D440F60010C0F23D00504347E0D8
:10085000606802280AD001282AD159F8041C8903AB
:1008600008D4012001B0BDE8F08300BF59F8041C92
:100870008901F6D5D9F8001021F003010843C9F821
:100880000000FFF7A1FD064641F28837D9F80000C5
:10089000616800F00C00B0EB810F95D0FFF794FD7C
:1008A000801BB842F2D9032001B0BDE8F08300BF3D
:1008B00059F8041C8907D4D5DCE700BF41F20020B9
:1008C000C0F27A000CE000BFD9F8001042F62E33D7
:1008D000C1F34041C0F60003595C5043B0FBF1F056
:1008E000D9F8001042F63032C1F30311C0F600020D
:1008F000515C40F2080220FA01F140F20400C2F219
:1009000000000068C2F200021160FFF785FD0020C0
:1009100001B0BDE8F083000040F2080041F204019C
:10092000C2F20000C4F202010068096842F64032D7
:10093000C1F3C221C0F60002515CC84070470000FC
:100940002DE9F04182B0002868D00446007841F2D9
:100950000006C007C4F2020625D0706800F00C0043
:1009600004281BD0706800F00C00082802D17068C1
:10097000C00313D46068002800F06881B0F5A02F90
:1009800000F07C81B0F5803F00F07C81306820F47D
:1009900080303060306820F4802076E13068800359
:1009A00001D56068D0B32078800718D5706810F042
:1009B0000C0F07D0706800F00C0008286ED170682A
:1009C000C0036BD43068800702D52069012825D187
:1009D0003068616920F0F80040EAC100306020789A
:1009E00000071FD42078400732D4E56995B17068BC
:1009F00000F00C00082840F08F80012D0ED07068A8
:100A0000216A00F480328A4208D1616A00F47010D1
:100A1000884203D1002002B0BDE8F081012002B07D
:100A2000BDE8F081A069002862D00020C4F2422015
:100A30000121C0F88014FFF7C7FC0546706A8007E3
:100A400000F18C80FFF7C0FC401B0228F6D92AE198
:100A5000F06910F0805808D1F06940F08050F061E2
:100A6000F06900F080500090009847F20007C4F24F
:100A700000073868C00529D4386840F480703860B1
:100A8000FFF7A2FC054600BF3868C0051ED4FFF77B
:100A90009BFC401B6428F7D905E100BF20690028B2
:100AA00040F20000C4F2422000F082800121016087
:100AB000FFF78AFC054600BF306880073FF588AF26
:100AC000FFF782FC401B0228F6D9ECE0E068002822
:100AD00000F08080052800F09780012800F09880C1
:100AE000306A20F001003062306A20F0040092E0A9
:100AF0000020C4F242200021C0F88014FFF764FCFB
:100B0000054600BF706A80077FF56CAFFFF75CFC9D
:100B1000401B0228F6D9C6E00027C4F24227002075
:100B20003866FFF751FC022D05460BD13068800175
:100B300040F1BE80FFF748FC401B02284FF0030045
:100B4000F4D968E7306880017FF564AFFFF73CFCBB
:100B5000401B02284FF00300F4D95CE740F2080084
:100B6000C2F20000006844F6D351C1F26201A0FB5A
:100B70000101480A019000BF00BF0198411E0028F2
:100B800001913FF42FAF00BF0198411E0028019151
:100B90003FF428AF00BF0198411E002801913FF4A7
:100BA00021AF00BF0198411E00280191E4D119E74F
:100BB00000210160FFF708FC054600BF3068800790
:100BC0007FF50DAFFFF700FC401B02284FF003003C
:100BD000F4D920E7306A20F001003062306A20F05A
:100BE00004003062FFF7F0FB054641F2883700BF92
:100BF000306A800720D5FFF7E7FB401BB8424FF073
:100C00000300F5D907E700BF306A40F00400306206
:100C1000306A40F001003062FFF7D6FB054641F232
:100C2000883700BF306A800706D4FFF7CDFB401B32
:100C3000B842F7D937E000BFB8F1000F7FF4D5AE66
:100C4000F06920F08050F061CFE600BF306820F4FA
:100C500080303060306820F480203060FFF7B4FBD3
:100C6000054600BF306880037FF59DAEFFF7ACFB03
:100C7000401B64284FF00300F4D9CCE6306840F400
:100C800080203060306840F480303060FFF79CFB9B
:100C9000054600BF306880033FF585AEFFF794FB43
:100CA000401B6428F6D9032002B0BDE8F08100BFE4
:100CB000206AB0F5803F05D17168A26821F4003147
:100CC000114371607168626A21F474111043084322
:100CD000706001203866FFF777FB044630688001BA
:100CE0003FF598AEFFF770FB001B02284FF00300A2
:100CF000F4D990E600284FF0010218BF002901D175
:100D000010467047027C012A4FF00202F8D046F6E6
:100D10003043C4F20003427453F8042C12F4C07F31
:100D200002D0012204210EE01A6822F0030CD1E95E
:100D3000002142EA0C02114319605968002241F077
:100D4000040159600121417400210174104670476B
:100D500070470000B0B546F63445C4F20005296876
:100D60000446490744BF28685FEAC05002D4012006
:100D70006074B0BD2046FFF7EBFF286840F0030029
:100D8000286001206074B0BD2DE9F04706460028B8
:100D90004FF0010000F0A5800C46002900F0A18072
:100DA00030684168490700F1D98091468269C1697C
:100DB000836948F6890583EA02073F041CBFC169BD
:100DC0001A4689B241EA02414BF2C532C9F2A21277
:100DD000A1FB0223DA0A4FF4616302FB13139FB2F3
:100DE0006F437D0D65702D01A5EB5757A3EB87036E
:100DF00045F28017C0F20107B942A37036D344F21E
:100E00000753CCF22E23A1FB03374AF6AB23CAF6D5
:100E1000AA23A2FB03352B0903EB4303A2EBC30276
:100E20002270026A406A4FEA174880B240EA0240E4
:100E3000451A98BF4FF0FF35421C4AF68062CFF644
:100E4000FE7208FB021A08BF0546FFF7BDFA074607
:100E500030684168890647D4FFF7B6FAC01BB0F581
:100E60007A7FF5D90120BDE8F08700BF2270B9F183
:100E7000000F00F09F802178CD26A1F10A03DFB298
:100E80007743FD0A05EB85056278A3EB4503012551
:100E9000A07805EBD727092988BF43EA07112170FD
:100EA000A2F10A01CBB27343DF0A07EB8707A1EB7C
:100EB000470105EBD323092A88BF41EA0312A0F1B9
:100EC0000A016270CAB27243D30A03EB8303A1EB37
:100ED000430105EBD222092888BF41EA0210A07025
:100EE0000020BDE8F08700BF416841F0100141607B
:100EF0004FEA1A4181611FFA8AF1C161416821F00C
:100F000010014160FFF760FA074600BF3068406893
:100F1000800609D4FFF758FAC01BB0F57A7FF5D9DF
:100F20000120BDE8F08700BF681C11D05544FFF7D1
:100F30004BFA074630684168890613D4FFF744FA34
:100F4000C01BB0F57A7F4FF00100F3D9C9E700BFAD
:100F500030464FF0FF3101F08FF818B30120BDE8A3
:100F6000F08700BF416841F010014160290C016227
:100F7000A9B24162416821F010014160FFF724FAF3
:100F8000074600BF3068406880060BD4FFF71CFAA4
:100F9000C01BB0F57A7F4FF0010088BFBDE8F08735
:100FA000F0E700BF3046414600F014FFB9F1000FF2
:100FB0007FF461AF0020BDE8F087000070B5002825
:100FC0006AD00446407C20B900202074204600F0FE
:100FD00073F8022060742068416821F008014160C4
:100FE000FFF7F2F9064600BF20684568FFF7ECF905
:100FF000290705460ED4A81BB0F57A7FF4D9012540
:1010000004206074284670BDFFF7DEF9401BB0F580
:101010007A7FF4D8216848688006F5D5486846F696
:101020002C4240F0100048604868C4F2000220F0F2
:1010300007004860A06818B1536823F001035360AB
:10104000136823F46073184310606068421C06D173
:1010500001200125FFF778FA50B3216801388A682A
:1010600022F00F0242EA10428A60CA6860F30F025F
:10107000CA60486820F010004860FFF7A5F90546EF
:1010800020684068800609D4FFF79EF9401BB0F540
:101090007A7FF5D9B3E700BF012070BD40F201109F
:1010A0000025A4F80D000120E5736074284670BD8A
:1010B00004206074284670BD80B582B0006842F696
:1010C0000001C4F2000188421CBF02B080BDFFF7DE
:1010D00035FA41F21C00C4F202000168002241F01E
:1010E000006101600068012100F00060019001983A
:1010F00040F23C40C4F24220016002200021FFF790
:10110000E1F9022002B0BDE88040FFF7CBB9000052
:10111000F0B581B0044600284FF0010018BF002947
:1011200002D101B0F0BD00BF207C01284FF00200C9
:10113000F7D0012323746074CB78BAB1180900EB9F
:10114000800003F00F0202EB400348788A78070919
:1011500007EB870700F00F0000EB4707100900EBD3
:10116000800002F00F0202EB400001E04F78887827
:10117000E373DAB2FBB21726022F06FB03F36773A1
:10118000A07309D8DBB239277B434FEA532C02F214
:10119000CF7740F2D47E08E04EF28F36734302F5EB
:1011A000FA674FEAD34C40F2D27EC0B21044BD0879
:1011B00041F27B4370446B433D0940F63E2600EB11
:1011C00097007543A0EB534000EB1540604482B29A
:1011D00042F293435A43A0EB12439BB25B0803EBEA
:1011E00012429208A2EBC2021044226820730870D7
:1011F0009169D0699369002683EA01073F041CBF07
:10120000D069194680B240EA014045F69071C0F2BB
:10121000010188421AD344F20751CCF22E21A0FBDF
:101220000112110C40F2A3225143A0EBC117FFF7AA
:10123000CBF805462068416889060DD4FFF7C4F84D
:10124000401BB0F57A7FF5D920E000BF01210020D6
:101250006174267401B0F0BD416841F01001416035
:10126000390C8161B9B2C161416821F0100141605E
:10127000FFF7AAF8054600BF2068416889060BD42D
:10128000FFF7A2F8401BB0F57A7FF5D901200421C1
:101290006174267401B0F0BD016A406A80B240EA10
:1012A0000140B84230D200F5803000F5A347FFF787
:1012B0008BF8054620684168890607D4FFF784F853
:1012C000401BB0F57A7FF5D9E0E700BF416841F0F7
:1012D00010014160390C0162B9B24162416821F0EC
:1012E00010014160FFF770F80546206840688006ED
:1012F0000AD4FFF769F8411B0120B1F57A7F4FF05E
:101300000401F2D9A4E700BF002001216174267412
:1013100001B0F0BD70B5044600284FF0010018BFC1
:10132000002901D170BD00BF207C01284FF00200D0
:1013300008BF70BD012323746074087802B30209EA
:1013400002EB820200F00F0000EB4200C0B24FF44B
:10135000616250434A788978130903EB830302F0F2
:101360000F0202EB4302D2B2C2EB021200EB820088
:101370000A0902EB820201F00F0101EB420108E0D1
:101380004FF4616250434A788978C2EB021200EB55
:101390008200C9B24618FFF717F805462068416871
:1013A000890607D4FFF710F8401BB0F57A7FF5D90E
:1013B0001AE000BF416841F010014160310C8161C9
:1013C000B1B2C161416821F010014160FEF7FCFF3C
:1013D000054600BF2068416889060BD4FEF7F4FF7C
:1013E000401BB0F57A7FF5D90120042161740021FA
:1013F000217470BD416821F005014160016A406AB5
:1014000080B240EA0140B0422ED200F5803000F5B3
:10141000A346FEF7D9FF054620684168890607D430
:10142000FEF7D2FF401BB0F57A7FF5D9DCE700BFAD
:10143000416841F010014160310C0162B1B241627A
:10144000416821F010014160FEF7BEFF054600BF74
:1014500020684068800607D4FEF7B6FF401BB0F551
:101460007A7FF5D9C0E700BF002001216174002117
:10147000217470BD411E0020B0EB116F1CBF012014
:1014800070474EF21002CEF2000251604EF6235128
:10149000CEF20001F0230B700721906011607047BD
:1014A0007047000070470000B0B590F83C20012A5A
:1014B00004BF0220B0BD01F108053CCDD1E900CE4A
:1014C00023F47C5322F470521A432EF4F0431A434F
:1014D0002CF4E0431A4324F4C0431A432A43C96955
:1014E00022F48042036811435964002180F83C10C3
:1014F0000846B0BD10B590F83C20012A4FF002021A
:1015000016D080F83D2002685368D2F808C023F056
:10151000700ED1E900342CF0800143EA0E03214320
:10152000536091600121002280F83D1080F83C203A
:10153000104610BD0146022081F83D00086882680F
:1015400002F00702062A03D0026842F0010202609C
:101550000122002081F83D20704700000068C1682A
:1015600041F00101C160816801F00701062903D043
:10157000016841F0010101600020704770470000E0
:1015800010B5016804460869800744BFC8685FEA6F
:10159000807039D40869400744BFC8685FEA40706A
:1015A0003ED40869000744BFC8685FEA007045D4AC
:1015B0000869C00644BFC8685FEAC0604AD40869C9
:1015C000C0071CBFC8685FEAC07051D10869000637
:1015D00044BFC8685FEA006052D40869400644BF4F
:1015E000C8685FEA406053D40869800646BFC8688F
:1015F0005FEA806010BD6FF0200220460A61BDE8FE
:101600001040FFF74FBF00BF6FF0020008610120DC
:1016100020778869800743D02046FFF7AFFF45E079
:101620006FF00400086102202077886910F4407F81
:1016300040D02046FFF7A2FF42E000BF6FF0080055
:10164000086104202077C86980073DD02046FFF755
:1016500095FF3FE06FF01000086108202077C8690F
:1016600010F4407F3AD02046FFF788FF3CE000BFEF
:101670006FF001000861204600F0A0FB2168A5E79B
:101680006FF0800008612046FFF70AFF2168A4E799
:101690006FF040000861204600F092FB2168A3E74C
:1016A000204600F031F9204600F05AFB2168002066
:1016B00020776FE7204600F027F9204600F050FB26
:1016C0002168002020776CE7204600F01DF92046B5
:1016D00000F046FB21680020207769E7204600F0F3
:1016E00013F9204600F03CFB21680020207766E7D4
:1016F00080B586B000680021B0F1804FCDE90411BB
:101700000391029116D042F60041C4F201018842D1
:1017100029D141F21800C4F20200016841F004012D
:101720000160006800F00400019001984FF400701F
:101730000EE000BF41F21800C4F20200016841F05F
:1017400004010160006800F004000190019801208C
:10175000029002200390059040F60000C4F20100C0
:1017600002A9FEF71BFD06B080BD00002DE9F04187
:1017700090F83C30012B4FF0020300F0C1804FEA9B
:10178000B202032A80F83D3000F2B480DFE802F0B4
:10179000022E5E8E026842F60045136AC4F201050D
:1017A00023F001031362146A5368D2F818C0AA42E6
:1017B0008D68D1F800E024F0020444EA05040BD15E
:1017C000CD68D1E9056723F4407324F00C0425F0BB
:1017D000040533432C433B432CF0730747EA0E07C1
:1017E0005360976149685163146283E0026842F66E
:1017F0000045136AC4F2010523F010031362146A52
:101800005368D2F818C0AA428D68D1F800E024F0DD
:10181000200444EA05140FD1CD68D1E905876FF0A3
:10182000400623F4406324F0C00406EA051543EAA9
:1018300088032C4343EA87032CF4E64747EA0E2744
:101840005360976149689163146253E0026842F6FD
:101850000045136AC4F2010523F480731362146A0D
:101860005368D2F81CC0AA428D68D1F800E024F475
:10187000007444EA05240FD1CD68D1E905872D0213
:1018800040F2FF4623F4405324F44064B54343EA56
:1018900008132C4343EA07132CF0730747EA0E079B
:1018A0005360D7614968D163146223E0026842F64D
:1018B0000046136AC4F2010623F480531362136ACC
:1018C0005468D2F81CE00D68D1F808C0B24204D1C7
:1018D0004E6924F4804444EA86142EF4E64747EA2D
:1018E00005275460D76123F40053496843EA0C3359
:1018F000116413620121002380F83D1080F83C3010
:101900001846BDE8F081000070470000002804BFC1
:101910000120704710B5044690F83D0028B900201A
:1019200084F83C00204600F055F8022084F83D0081
:10193000206840F2FF730268C4F2000342F6004CD4
:101940009842C4F2010C15DCB0F1804F1AD040F27D
:101950000041C4F20001884214D0984218DCB0F172
:10196000804F1DD040F20041C4F20001884217D0E0
:101970001AE000BF604505D040F60001C4F2000146
:101980008842EAD1A16822F070020A439842E6DD5B
:10199000604505D040F60001C4F20001884203D141
:1019A000216922F440720A43A36922F08001D4F82D
:1019B00004E0E268194360450160C262C0F828E0B3
:1019C00002D16169CCF8301001214161002084F816
:1019D0003D1010BD10B582B0006840F60001C4F2A1
:1019E0000001884214D040F20041C4F20001884254
:1019F00028D141F21C00C4F2020001681D2441F00C
:101A000002010160006800F00200019001980DE001
:101A100041F21C00C4F2020001681E2441F00401DE
:101A20000160006800F0040000900098204600214A
:101A30000022FEF747FD204602B0BDE81040FEF749
:101A400031BD00BF02B010BD2DE9F04390F83C302D
:101A5000012B4FF0020300F0F2804FEAB202032A9A
:101A600080F83D3000F2E580DFE802F0023A76B01F
:101A7000036842F600461A6AC4F2010622F0010227
:101A80001A621D6A1A465C6852F818CFB3428E6813
:101A9000D1F800E025F0020545EA06050CD1CE6834
:101AA000D1E9057824F4407425F00C0526F00406ED
:101AB0003C43354344EA08042CF0730747EA0E0719
:101AC0005C609F614F6809695F631D629F6947F0B1
:101AD00008079F619F6927F004079F61A6E000BF88
:101AE000036842F600461A6AC4F2010622F01002A8
:101AF0001A621D6A1A46D3F804C052F8184FB3424E
:101B00008E68D1F800E025F0200545EA06150FD1D2
:101B1000CE68D1E905986FF0400707EA06162CF465
:101B2000406725F0C00547EA8907354347EA880C36
:101B300024F4E64444EA0E27C3F804C09F614F68CA
:101B400009699F631D629F6947F400679F619F69F0
:101B500027F480679F6168E0036842F600461A6ACE
:101B6000C4F2010622F480721A621D6A1A46D3F882
:101B700004C052F81CEFB3428E680C6825F400755F
:101B800045EA06250FD1CE68D1E90598360240F224
:101B9000FF47BE432CF4405725F4406547EA091738
:101BA000354347EA081C2EF073072743C3F804C0E7
:101BB000DF614F680969DF631D62DF6947F008076D
:101BC000DF61DF6927F00407DF612FE0036842F679
:101BD00000471A6AC4F2010722F480521A621A46B8
:101BE000D3F820C05D6852F81C4FD1F800E08E6831
:101BF000BB4204D14F6925F4804545EA87152CF492
:101C0000005747EA063724F4E64646EA0E265D60AA
:101C1000DE614E6809691E641F62DF6947F4006770
:101C2000DF61DF6927F48067DF6109021368194308
:101C300011600121002380F83D1080F83C301846E7
:101C4000BDE8F083002804BF0120704710B50446AA
:101C500090F83D0028B9002084F83C00204600F0B0
:101C600055F8022084F83D00206840F2FF730268B6
:101C7000C4F2000342F6004C9842C4F2010C15DC99
:101C8000B0F1804F1AD040F20041C4F20001884206
:101C900014D0984218DCB0F1804F1DD040F20041C2
:101CA000C4F20001884217D01AE000BF604505D099
:101CB00040F60001C4F200018842EAD1A16822F096
:101CC00070020A439842E6DD604505D040F6000107
:101CD000C4F20001884203D1216922F440720A4310
:101CE000A36922F08001D4F804E0E268194360455A
:101CF0000160C262C0F828E002D16169CCF83010FE
:101D000001214161002084F83D1010BD82B00068BF
:101D1000B0F1804F14D042F60041C4F20101884274
:101D20001BD141F21800C4F20200016841F40061C5
:101D30000160006800F400600190019802B07047F3
:101D400041F21800C4F20200416841F00101416013
:101D5000406800F001000090009802B07047000059
:101D600070470000006801F01F010122036A8A40E9
:101D700023EA02010162036A42F64441C4F201010E
:101D80001A43A1F144039842026207D0816801F02E
:101D9000070106290BD10020704700BF0A6842F4F2
:101DA00000420A60816801F007010629F3D001684A
:101DB00041F0010101600020704700007047000001
:101DC00070470000FEE70000FEE7000070470000DB
:101DD000704700002DE9F043427B837B90F80FC0F1
:101DE000002900F0D380012901F0010E18D1BEF1C5
:101DF000000F00F0CB800C2A00F2C8800121914036
:101E000041F2AA57394200F0B7801F2BC0F0B980C9
:101E10000C2A40F0B9800CF1010C0122B5E000BFA2
:101E200045F6294945F628474DF20B7821F0010186
:101E3000012441F2AA55CCF28F29C0F28F27C0F2BB
:101E4000A30802E001330239D1D00C2A16D804FAD3
:101E500002F62E4208D01E2B0BD90C2A0CD10CF105
:101E6000010C012209E000BF16F4256F1ED01D2BC6
:101E700002D8013302E000BF013201230C2AE2D86C
:101E800004FA02F62E4209D01F2BDBD30C2A0AD10A
:101E90000CF1010C01220123D5E700BF16F4256FD8
:101EA0000CD01E2BCED301320123CCE7022AE5D180
:101EB0001B2B0BD801330222E0E700BF022AC2D15C
:101EC0001C2B0DD201330222BDE700BF1D2B0DD00C
:101ED0001C2B0FD15FEA8C7216D000222FE000BFBE
:101EE0000AD01D2B0ED101230322ACE701230322CC
:101EF000C4E700BF0222C1E75FEA8C720ED0002265
:101F00002FE000BF02229EE71FFA8CF202FB09F2CB
:101F10004FEAB203BB420BD9012210E01FFA8CF248
:101F200002FB09F24FEAB203BB4213D9012218E0C7
:101F30004FEA321242454FF0000238BF0122002A18
:101F40004FF002024FF01D0308BF032208BF012318
:101F500094E700BF4FEA321242454FF0000238BF0B
:101F60000122002A4FF002024FF01D0308BF032296
:101F700008BF012367E700BF11F4256F44D01E2B73
:101F800002D2013302E000BF01320123D1B2427319
:101F90001722022902FB01F180F80FC0837309D8D0
:101FA000C9B239225143490A0CF2CF7240F2D477B8
:101FB00008E000BF4EF28F3779430CF5FA62C90C86
:101FC00040F2D277DBB248F21F566344C5F2EB16FB
:101FD0003B44A2FB066503EB9202A2EB551202EB17
:101FE000D512114444F62512C2F29242A1FB0223FB
:101FF000CA1A03EB52029308DB00A3EB9202891A80
:102000000173BDE8F08300BF022ABFD11C2B03D2AD
:1020100001330222BAE700BF04D01D2B08D10123EF
:102020000322B3E75FEA8C7104D001211CE000BFFA
:102030000222ABE745F629421FFA8CF1CCF28F223F
:102040004A4345F628434FEAB201C0F28F23994232
:102050004FF0000108D84DF20A734FEA3212C0F275
:10206000A3039A4288BF012102221D23002918BF21
:10207000032218BF012389E770B50D460446FEF719
:10208000A3F9064620684168890607D4FEF79CF943
:10209000801BB0F57A7FF5D9012070BD416841F011
:1020A00010014160290C0162A9B24162416821F02E
:1020B00010014160FEF788F9054600BF20684068BE
:1020C000800607D4FEF780F9401BB0F57A7FF5D97A
:1020D000012070BD002070BD70470000FEF77AB986
:1020E00041F20000C4F202000168002241F0010147
:1020F00001604168CFF6FF021140416001684FF670
:10210000FF72CFF6F66211400160016821F4802170
:102110000160416821F4FE0141604FF41F018160BC
:102120004EF60850CEF200004FF00061016070479B
:1021300040F21C00C2F20000FEF70CBE80B540F277
:10214000F000C2F20000FFF71BFA40F23010C2F2BA
:102150000000017881F00102002940F23401027090
:102160004FF00000C4F2000108BF0720086080BDE6
:1021700080B540F23000C2F20000FFF701FA40F2F1
:102180001000C2F20000017811B10121017080BD80
:1021900040F23111C2F200010A78072A9ABF0A7888
:1021A000023200220A700121017080BDFEE70000AA
:1021B000B0B5092888BFB0BDDFE800F0060E1C34BA
:1021C00048607688A0AE00BF40F60044C4F2010427
:1021D000204640F202419DE040F60044C4F2010472
:1021E00020464FF480610122FEF7E8F820460221E4
:1021F00090E000BF40F60044C4F20104A4F58065FD
:10220000284680210122FEF7D9F8204640F20241FB
:102210000022FEF7D3F8284620210022BDE8B04076
:10222000FEF7CCB840F60044C4F2010420464FF457
:1022300080610122FEF7C2F8A4F58065284680215E
:102240000122FEF7BBF8284620212AE040F6004490
:10225000C4F20104A4F58065284620210122FEF77E
:10226000ADF8204640F202410022FEF7A7F82846CA
:1022700080210022BDE8B040FEF7A0B840F600443F
:10228000C4F20104A4F58065284620210122FEF74E
:1022900095F820464FF480610122FEF78FF828461A
:1022A0008021002220E000BF40F60044C4F2010477
:1022B000A4F58060A0210122FEF780F8204640F2BC
:1022C00002410022BDE8B040FEF778B840F6004475
:1022D000C4F20104A4F58060A0210122FEF76EF88B
:1022E00020464FF480610122FEF768F82046022163
:1022F0000022BDE8B040FEF761B800BF40F60044E0
:10230000C4F20104204602210122FEF757F82046BC
:102310004FF48061002207E040F60044C4F201045B
:10232000204640F202410122FEF748F8A4F5806001
:10233000A0210022BDE8B040FEF740B898B040F6BA
:10234000000BC4F2010BFEF753F806AD281D242143
:10235000FDF7EFFE0620069010204FF00008012444
:102360000B902846CDE90488CDE90944CDF83480A6
:10237000FEF7E6FA0F20CDE910084FF48060CDE9B2
:10238000130810A80021CDF84880FEF7DDF94FF4BE
:102390008070039002A80294FEF750F941F21800F1
:1023A000CDF82480C4F202000168002241F010013F
:1023B000016001684FF0F00A01F0100110911099CE
:1023C000016841F004010160016801F0040110910D
:1023D0001099016841F0080101600068F02100F0E7
:1023E0000800109010985846FDF7E8FF0BF580653F
:1023F000284640F20741002240F20749FDF7DEFF80
:1024000006AE022758463146CDE906780894FDF716
:10241000C5FE58463146CDE906A4CDE90877FDF75B
:10242000BDFE28463146CDE90694CDE908770195F1
:10243000FDF7B4FECDE9064740F21007C2F20007EF
:10244000ABF56040BA464AF80C0F4FF0FF30C7E9D1
:1024500004085046FEF7B2FD06A95046FEF74AFCB6
:1024600020201090ABF580303C4644F8200F272008
:10247000FF214FF40072C4E901082046CDF84480E2
:10248000CDE90B88CDE90988C4E90312C4F81880A6
:10249000FFF73CFA10A92046FFF72CF806A92046C2
:1024A0000022CDE90688CDF82080CDF82880FFF7FE
:1024B0005DF940F270090BF51050C2F20009A0213D
:1024C000C9E900084846CDE90288CDF83080C9E95D
:1024D0000281C9E90488C9F81880FFF7B3FB02A993
:1024E0004846FFF707F8602610A948460422CDE9C0
:1024F0001068CDE91288CDE91488CDF85880FFF72F
:10250000A3FA4FF400500B9006A94846CDE906887F
:10251000CDE90888CDF82880CDF83480FEF7C4FFD7
:102520004846FFF7E5F840F2B005C2F200054FF06B
:10253000804040F2FF31C5E900082846CDE9108807
:10254000CDE90B88CDE90988C5E90281C5F810807D
:10255000C5F81880FFF776FB10A92846FEF7CAFFDA
:1025600006A928460022CDE90668CDF82080CDF8DE
:102570002880FFF769FA2846FFF7BAF840F2F0061C
:10258000ABF58230C2F2000641F63F7140F2F31221
:1025900086E803013046CDE91088CDE90B88CDE906
:1025A0000988C6E90328C6F81880FFF7AFF910A913
:1025B0003046FEF79FFF06A930460822CDE906887F
:1025C000CDF82080CDF82880FFF7D0F82046FEF720
:1025D000B1FF2046FEF7C2FF3046FEF7ABFF3046A4
:1025E000FEF7BCFF48460421FFF7BCFB284600214C
:1025F000FFF7B8FB5046FEF7ADFB42F63844C4F295
:10260000010400BF0A20C4F80080FDF7B3FD08F103
:102610000108B8F1640FF5D107F10C0B10A9584669
:1026200000220024FEF774FD7C7000BF0520FDF73A
:10263000A1FD78780130C1B20A297870F6D340F64E
:1026400000090020C4F20109B87000BF0520FDF7A1
:1026500091FDB8780130C1B20A29B870F6D30020D4
:10266000F87000BF0520FDF785FDF8780130C1B294
:102670000A29F870F6D30020387100BF0520FDF755
:1026800079FD38790130C1B20A293871F6D34CF698
:10269000CD4A4CF66B280026CD25CCF6CC4AC6F6A2
:1026A0005F380DE09DF8090049F69A1100FB0AF029
:1026B00001384FEA7000C1F69911884228BF7E7137
:1026C000584602A90022FEF75FFB9DF808009DF81E
:1026D0000910C2B26A43D20A3A7102EB8202A0EB3D
:1026E0004200F870C8B26843C00A3A78B87000EB8C
:1026F0008000A1EB4000002A787000F08B8140F24E
:102700003110C2F200000078062800F28281DFE872
:1027100010F00700800167008001C70080012501DB
:10272000019804210022FDF749FE4FF4FA7006904B
:1027300040F20800C2F200000068A0FB0801069801
:10274000490D4843069000BF0698411E069160B1AE
:102750000698411E069140B10698411E069120B18F
:102760000698411E00280691EED1019840F20241E0
:102770000022FDF723FE48464FF490610022FDF74A
:102780001DFE3879FFF714FD484610210122FDF7A0
:1027900015FE4FF4FA60069040F20800C2F2000005
:1027A0000068A0FB08010698490D4843069000BF49
:1027B0000698411E0028069100F02B810698411EC4
:1027C0000028069100F025810698411E00280691F8
:1027D00000F01F810698411E00280691E8D118E1FB
:1027E000484610210022FDF7E9FD4FF4FA700690EB
:1027F00040F20800C2F200000068A0FB0801069841
:10280000490D4843069000BF0698411E069160B1ED
:102810000698411E069140B10698411E069120B1CE
:102820000698411E00280691EED1019840F202411F
:102830000022FDF7C3FD48464FF490610022FDF7EA
:10284000BDFDF878FFF7B4FC484640210122FDF7B2
:10285000B5FD4FF4FA60069040F20800C2F20000A5
:102860000068A0FB08010698490D4843069000BF88
:102870000698411E0028069100F0CB800698411E64
:102880000028069100F0C5800698411E0028069198
:1028900000F0BF800698411E00280691E8D1B8E0FC
:1028A000484640210022FDF789FD4FF4FA7006905A
:1028B00040F20800C2F200000068A0FB0801069880
:1028C000490D4843069000BF0698411E069160B12D
:1028D0000698411E069140B10698411E069120B10E
:1028E0000698411E00280691EED1019D40F202415A
:1028F00028460022FDF762FD48464FF49061002211
:10290000FDF75CFDB878FFF753FC28460121012252
:10291000FDF754FD4FF4FA60069040F20800C2F251
:1029200000000068A0FB08010698490D4843069086
:102930000698411E002806916AD00698411E00287C
:10294000069165D00698411E0028069160D0069831
:10295000411E00280691EBD15AE000BF01980121E9
:102960000022FDF72BFD4FF4FA70069040F20800AC
:10297000C2F200000068A0FB08010698490D484318
:10298000069000BF0698411E069160B10698411E50
:10299000069140B10698411E069120B10698411E4D
:1029A00000280691EED1019D40F202412846002206
:1029B000FDF704FD48464FF490610022FDF7FEFC50
:1029C0007878FFF7F5FB284604210122FDF7F6FC95
:1029D0004FF4FA60069040F20800C2F2000000686E
:1029E000A0FB08010698490D484306900698411E31
:1029F000069168B10698411E069148B10698411E9D
:102A0000069128B10698411E00280691EED100BF1C
:102A1000CD253E7048460221FDF7CAFC10B10020CA
:102A200030E000BFB7F80690FDF7CEFCB968B9F109
:102A3000040FA0EB010009D840F60009FA28C4F2FF
:102A400001094FF0000609D81DE000BF40F600095B
:102A50001528C4F201094FF0000614D39DF80900AF
:102A600002A901308DF8090058460022FEF752FCF9
:102A7000584610A90022FEF74BFBFDF7A5FCF9888C
:102A8000B860481CF8809DF8090049F6991100FBD0
:102A90000AF001384FEA7000C1F6991188423FF6FA
:102AA00001AE787900287FF4FDAD48460221FDF79C
:102AB0007FFC00283FF4F6AD7E7000BF0520FDF7D7
:102AC00059FB78780130C1B20A297870F6D3BE700C
:102AD0000520FDF74FFBB8780130C1B20A29B87064
:102AE000F6D3FE700520FDF745FBF8780130C1B242
:102AF0000A29F870F6D33E710520FDF73BFB3879C3
:102B00000130C1B20A293871F6D301207871C9E5C4
:102B100002E008C8121F08C1002AFAD170477047A6
:102B2000002001E001C1121F002AFBD17047010201
:102B3000000000000000000001020304060708096D
:102B4000000000000102030402030405060708094F
:102B50000A0B0C0D0E0F1010782B0008000000203F
:102B600010000000102B0008882B00081000002027
:102B700028050000202B00080100000010000000C4
:082B80000024F4000000000035
:04000005080000ED02
:00000001FF
